{
  "contractName": "Test",
  "abi": [
    {
      "constant": true,
      "inputs": [],
      "name": "owner",
      "outputs": [
        {
          "name": "",
          "type": "address"
        }
      ],
      "payable": false,
      "stateMutability": "view",
      "type": "function"
    },
    {
      "constant": true,
      "inputs": [],
      "name": "dai",
      "outputs": [
        {
          "name": "",
          "type": "address"
        }
      ],
      "payable": false,
      "stateMutability": "view",
      "type": "function"
    },
    {
      "inputs": [],
      "payable": false,
      "stateMutability": "nonpayable",
      "type": "constructor"
    },
    {
      "constant": false,
      "inputs": [
        {
          "name": "_exchange",
          "type": "address"
        },
        {
          "name": "_data",
          "type": "bytes"
        }
      ],
      "name": "takeOrder",
      "outputs": [
        {
          "name": "",
          "type": "uint256"
        }
      ],
      "payable": true,
      "stateMutability": "payable",
      "type": "function"
    },
    {
      "constant": false,
      "inputs": [],
      "name": "withdraw",
      "outputs": [],
      "payable": false,
      "stateMutability": "nonpayable",
      "type": "function"
    },
    {
      "constant": false,
      "inputs": [
        {
          "name": "_token",
          "type": "address"
        }
      ],
      "name": "withdrawToken",
      "outputs": [],
      "payable": false,
      "stateMutability": "nonpayable",
      "type": "function"
    }
  ],
  "bytecode": "0x6080604052736b175474e89094c44da98b954eedeac495271d0f600160006101000a81548173ffffffffffffffffffffffffffffffffffffffff021916908373ffffffffffffffffffffffffffffffffffffffff16021790555034801561006557600080fd5b50336000806101000a81548173ffffffffffffffffffffffffffffffffffffffff021916908373ffffffffffffffffffffffffffffffffffffffff160217905550610849806100b56000396000f3fe60806040526004361061004a5760003560e01c8063344ef5f21461004f5780633ccfd60b1461013e57806389476069146101555780638da5cb5b146101a6578063f4b9fa75146101fd575b600080fd5b6101286004803603604081101561006557600080fd5b81019080803573ffffffffffffffffffffffffffffffffffffffff169060200190929190803590602001906401000000008111156100a257600080fd5b8201836020820111156100b457600080fd5b803590602001918460018302840111640100000000831117156100d657600080fd5b91908080601f016020809104026020016040519081016040528093929190818152602001838380828437600081840152601f19601f820116905080830192505050505050509192919290505050610254565b6040518082815260200191505060405180910390f35b34801561014a57600080fd5b506101536103a3565b005b34801561016157600080fd5b506101a46004803603602081101561017857600080fd5b81019080803573ffffffffffffffffffffffffffffffffffffffff169060200190929190505050610634565b005b3480156101b257600080fd5b506101bb6107d2565b604051808273ffffffffffffffffffffffffffffffffffffffff1673ffffffffffffffffffffffffffffffffffffffff16815260200191505060405180910390f35b34801561020957600080fd5b506102126107f7565b604051808273ffffffffffffffffffffffffffffffffffffffff1673ffffffffffffffffffffffffffffffffffffffff16815260200191505060405180910390f35b60008060608473ffffffffffffffffffffffffffffffffffffffff1634856040518082805190602001908083835b602083106102a55780518252602082019150602081019050602083039250610282565b6001836020036101000a03801982511681845116808217855250505050505090500191505060006040518083038185875af1925050503d8060008114610307576040519150601f19603f3d011682016040523d82523d6000602084013e61030c565b606091505b50809250819350505081156103265760019250505061039d565b600061039a576040517f08c379a000000000000000000000000000000000000000000000000000000000815260040180806020018281038252600b8152602001807f43616c6c206661696c656400000000000000000000000000000000000000000081525060200191505060405180910390fd5b50505b92915050565b60003073ffffffffffffffffffffffffffffffffffffffff16311115610443576000809054906101000a900473ffffffffffffffffffffffffffffffffffffffff1673ffffffffffffffffffffffffffffffffffffffff166108fc3073ffffffffffffffffffffffffffffffffffffffff16319081150290604051600060405180830381858888f19350505050158015610441573d6000803e3d6000fd5b505b6000600160009054906101000a900473ffffffffffffffffffffffffffffffffffffffff1673ffffffffffffffffffffffffffffffffffffffff166370a08231306040518263ffffffff1660e01b8152600401808273ffffffffffffffffffffffffffffffffffffffff1673ffffffffffffffffffffffffffffffffffffffff16815260200191505060206040518083038186803b1580156104e457600080fd5b505afa1580156104f8573d6000803e3d6000fd5b505050506040513d602081101561050e57600080fd5b81019080805190602001909291905050509050600081111561063157600160009054906101000a900473ffffffffffffffffffffffffffffffffffffffff1673ffffffffffffffffffffffffffffffffffffffff1663a9059cbb6000809054906101000a900473ffffffffffffffffffffffffffffffffffffffff16836040518363ffffffff1660e01b8152600401808373ffffffffffffffffffffffffffffffffffffffff1673ffffffffffffffffffffffffffffffffffffffff16815260200182815260200192505050602060405180830381600087803b1580156105f457600080fd5b505af1158015610608573d6000803e3d6000fd5b505050506040513d602081101561061e57600080fd5b8101908080519060200190929190505050505b50565b8073ffffffffffffffffffffffffffffffffffffffff1663a9059cbb6000809054906101000a900473ffffffffffffffffffffffffffffffffffffffff168373ffffffffffffffffffffffffffffffffffffffff166370a08231306040518263ffffffff1660e01b8152600401808273ffffffffffffffffffffffffffffffffffffffff1673ffffffffffffffffffffffffffffffffffffffff16815260200191505060206040518083038186803b1580156106ef57600080fd5b505afa158015610703573d6000803e3d6000fd5b505050506040513d602081101561071957600080fd5b81019080805190602001909291905050506040518363ffffffff1660e01b8152600401808373ffffffffffffffffffffffffffffffffffffffff1673ffffffffffffffffffffffffffffffffffffffff16815260200182815260200192505050602060405180830381600087803b15801561079357600080fd5b505af11580156107a7573d6000803e3d6000fd5b505050506040513d60208110156107bd57600080fd5b81019080805190602001909291905050505050565b6000809054906101000a900473ffffffffffffffffffffffffffffffffffffffff1681565b600160009054906101000a900473ffffffffffffffffffffffffffffffffffffffff168156fea165627a7a723058201afbc31844b54c08eb823221efb3d1fa2998c9bb6568744a2d412c8614b0bb430029",
  "source": "pragma solidity >=0.4.21 <0.7.0;\n\ninterface ERC20 {\n    function totalSupply() external view returns (uint supply);\n    function balanceOf(address _owner) external view returns (uint balance);\n    function transfer(address _to, uint _value) external returns (bool success);\n    function transferFrom(address _from, address _to, uint _value) external returns (bool success);\n    function approve(address _spender, uint _value) external returns (bool success);\n    function allowance(address _owner, address _spender) external view returns (uint remaining);\n    function decimals() external view returns(uint digits);\n    event Approval(address indexed _owner, address indexed _spender, uint _value);\n}\n\n\ncontract Test {\n\n  address payable public owner;\n  address public dai = 0x6B175474E89094C44Da98b954EedeAC495271d0F;\n\n  constructor() public {\n    owner = msg.sender;\n  }\n\n  function takeOrder(address _exchange, bytes memory _data) public payable returns(uint) {\n  \t    bool success;\n        bytes memory result;\n\n        (success, result) = _exchange.call.value(msg.value)(_data);\n\n        if (success) {\n            return 1;\n        } else {\n            require(false, \"Call failed\");\n        }\n  }\n\n  function withdraw() public {\n    if (address(this).balance > 0) {\n      owner.transfer(address(this).balance);\n    }\n    \n    uint balance = ERC20(dai).balanceOf(address(this));\n    if (balance > 0) {\n      ERC20(dai).transfer(owner, balance);\n    }\n  }\n\n  function withdrawToken(address _token) public {\n    ERC20(_token).transfer(owner, ERC20(_token).balanceOf(address(this)));\n  }\n}\n",
  "sourcePath": "/Users/nikolaklipa/Decenter/defisaver/0xtest/contracts/Test.sol",
  "compiler": {
    "name": "solc",
    "version": "0.5.7+commit.6da8b019.Emscripten.clang"
  },
  "schemaVersion": "3.0.11",
  "updatedAt": "2020-01-23T14:52:36.223Z",
  "devdoc": {
    "methods": {}
  },
  "userdoc": {
    "methods": {}
  }
}